:020000040800F2
:10000000000008206D8F0008AD880008AF88000848
:10001000B1880008B3880008B58800080000000017
:10002000000000000000000000000000B788000889
:10003000B988000800000000BB880008BD880008DF
:10004000BD8F0008BD8F0008BD8F0008BD8F000860
:10005000BD8F0008C1880008BD8F0008BD8F000853
:10006000BD8F0008BD8F0008BD8F0008BD8F000840
:10007000BD8F0008BD8F0008BD8F0008BD8F000830
:10008000BD8F0008BD8F0008BD8F0008BD8F000820
:10009000BD8F0008BD8F0008BD8F0008BD8F000810
:1000A000BD8F0008BD8F0008BD8F0008BD8F000800
:1000B000BD8F0008BD8F0008BD8F0008BD8F0008F0
:1000C000BD8F0008BD8F0008BD8F0008BD8F0008E0
:1000D000BD8F0008BD8F0008BD8F0008BD8F0008D0
:1000E000BD8F0008BD8F0008BD8F0008BD8F0008C0
:1000F000BD8F0008BD8F0008BD8F0008BD8F0008B0
:10010000BD8F0008BD8F0008BD8F0008BD8F00089F
:10011000BD8F0008BD8F0008BD8F0008BD8F00088F
:10012000BD8F0008BD8F0008BD8F0008BD8F00087F
:10013000BD8F0008BD8F0008BD8F0008BD8F00086F
:10014000BD8F0008BD8F0008BD8F0008C58800085E
:10015000BD8F0008BD8F0008BD8F0008BD8F00084F
:10016000BD8F0008BD8F0008BD8F0008BD8F00083F
:10017000BD8F0008BD8F0008BD8F0008BD8F00082F
:10018000BD8F0008BD8F0008BD8F0008BD8F00081F
:10019000BD8F0008BD8F0008BD8F0008BD8F00080F
:1001A000BD8F0008BD8F0008BD8F0008BD8F0008FF
:1001B000BD8F0008BD8F0008BD8F0008BD8F0008EF
:1001C000BD8F0008BD8F000800000000BD8F000833
:1001D000BD8F0008BD8F0008BD8F0008BD8F0008CF
:1001E000BD8F0008BD8F0008BD8F0008BD8F0008BF
:0801F000BD8F0008BD8F00085F
:1002000010B5054C237833B9044B13B10448AFF350
:1002100000800123237010BDF001002000000000C9
:10022000A498000808B5034B1BB103490348AFF37A
:10023000008008BD00000000F4010020A498000820
:1002400001F0FF01102A2BDB10F0070F08D010F887
:10025000013B013A8B422DD010F0070F42B3F6D18B
:10026000F0B441EA012141EA014122F007047FF0A4
:1002700000070023F0E80256083C85EA010586EAFB
:10028000010685FA47F5A3FA87F586FA47F6A5FA37
:1002900087F68EB9EED1F0BC01F0FF0102F0070243
:1002A00032B110F8013B013A83EA010313B1F8D1EE
:1002B0000020704701387047002D06BF35460338CF
:1002C000073815F0010F07D1013015F4807F02BF08
:1002D000013015F4C03F0130F0BC0138704700BF59
:1002E00053B94AB9002908BF00281CBF4FF0FF319D
:1002F0004FF0FF3000F072B9ADF1080C6DE904CE9B
:1003000000F006F8DDF804E0DDE9022304B07047F0
:100310002DE9F047089E04468846002B4BD18A42BF
:10032000154667D9B2FA82F24AB1C2F1200701FA42
:1003300002F320FA07F7954047EA030894404FEA92
:10034000154E230CB8FBFEF71FFA85FC0EFB178831
:1003500043EA084307FB0CF1994209D9EB1807F16E
:10036000FF3080F01B81994240F21881023F2B44FC
:100370005B1AA4B2B3FBFEF00EFB103344EA034455
:1003800000FB0CFCA44509D92C1900F1FF3380F0C7
:100390000781A44540F2048102382C4440EA07401A
:1003A000A4EB0C0400271EB1D4400023C6E900438F
:1003B0003946BDE8F0878B4209D9002E00F0EB806A
:1003C0000027C6E9000138463946BDE8F087B3FA90
:1003D00083F7002F47D18B4202D3824200F2FA808A
:1003E000841A61EB030301209846002EE0D0C6E991
:1003F0000048DDE702B9FFDEB2FA82F2002A40F0DF
:100400008F80491B4FEA154E1FFA85F80127B1FB73
:10041000FEFC230C0EFB1C1143EA014308FB0CF10C
:10042000994207D9EB180CF1FF3002D2994200F241
:10043000CD808446591AA3B2B1FBFEF00EFB101416
:1004400043EA044408FB00F8A04507D92C1900F141
:10045000FF3302D2A04500F2B6801846A4EB080490
:1004600040EA0C409FE7C7F1200CBB4022FA0CFE8B
:100470004EEA030E01FA07F420FA0CF521FA0CF308
:100480004FEA1E482543B3FBF8F92C0C08FB19333F
:100490001FFA8EFA44EA034309FB0AF49C4202FA6B
:1004A00007F200FA07F10BD91EEB030309F1FF3045
:1004B00080F087809C4240F28480A9F10209734455
:1004C0001B1BADB2B3FBF8F008FB103345EA034445
:1004D00000FB0AFAA24508D91EEB040400F1FF3321
:1004E0006BD2A24569D90238744440EA0940A0FBA6
:1004F0000289A4EB0A044C45C2464B4654D351D062
:10050000002E69D0B1EB0A0564EB030404FA0CFC7D
:10051000FD40FC404CEA0505C6E90054002747E7CA
:10052000C2F1200320FA03F7954001FA02F021FA04
:1005300003F34FEA154E3843010CB3FBFEF71FFAE5
:1005400085F80EFB173341EA034107FB08F38B42A2
:1005500004FA02F407D9691807F1FF3C2FD28B4245
:100560002DD9023F2944CB1A81B2B3FBFEF00EFB1A
:10057000103341EA034100FB08F38B4207D96918A5
:1005800000F1FF3C17D28B4215D902382944C91A11
:1005900040EA07473BE73746304609E70746E7E6C4
:1005A0001846FBE64145ABD2B8EB020A69EB0E02F6
:1005B00001381346A4E76046E9E7184695E7674621
:1005C000D1E781467CE702382C4447E7ACF1020CC6
:1005D0002B442FE7384608E73746E9E6704700BF67
:1005E00038B50E4B05460E4A18784FF47A73B3FBB4
:1005F000F0F31068B0FBF3F000F0C4FA044658B909
:100600000F2D09D8024629464FF0FF3000F07CFA42
:10061000044B20461D6038BD0120FCE7000000208F
:100620001C0100200400002008B5094B03201A68B3
:1006300042F400721A601A6842F480721A6000F084
:1006400051FA0020FFF7CCFF08F00EF9002008BD9A
:10065000003C0240034A044B11681B780B441360B2
:10066000704700BFA002002000000020014B186866
:10067000704700BFA002002038B50446FFF7F6FF20
:100680000546631C1EBF044B1B78E418FFF7EEFF02
:10069000401BA042FAD338BD00000020014B18686F
:1006A000704700BF20F4F01F014B1868704700BF6F
:1006B00024F4F01F014B1868704700BF28F4F01FA6
:1006C00010B50446002800F09980036C23B94364F8
:1006D00080F83C3006F032FA236CDB0600F18C80A7
:1006E000236C23F4885323F0020343F002032364B2
:1006F000434B5A6822F440325A605A6861680A4390
:100700005A60236821695A6822F480725A605A68D4
:1007100042EA0122A1685A605A6822F040725A6087
:100720005A680A43E1685A609A6822F400629A6043
:100730009A680A4333499A60A26A8A4250D09968FB
:1007400021F07061996099680A43E16A9A609A6839
:1007500022F040529A609A680A439A609A68A169A6
:1007600022F002029A609A6842EA41029A60226A82
:10077000002A3DD05A68616A42F4006201395A6029
:100780005A6822F460425A605A6842EA41325A601A
:100790000020DA6AE16922F470020139DA62DA6A69
:1007A00042EA0152216BDA629A6822F400729A607E
:1007B0009A6842EA412261699A609A6822F48062EA
:1007C0009A609A6842EA81229A606064236C23F0FE
:1007D000030343F001032364002384F83C3010BD7D
:1007E0009A6822F070629A609A6822F04052B4E7E8
:1007F0005A6822F40062CAE70120EDE70120EEE723
:10080000002301400100000F002382B0019390F803
:100810003C30012B4ED0012380F83C3003689A68AD
:10082000D10705D59A68D20714D4002002B07047CA
:100830009A68214942F001029A60204A1268B2FB8C
:10084000F1F202EB42020192019A002AEAD0019AE7
:10085000013AF8E7026C22F4E06222F0010242F46D
:10086000807202645A68510505D5026C22F4405228
:1008700042F480520264026C12F4805202D0426C44
:1008800022F006024264002280F83C206FF022022F
:100890001A600B4A5268D20608D1986810F040508E
:1008A000C3D19A6842F080429A60BFE7054A9342FA
:1008B000BBD1F2E70220B9E740420F001C01002043
:1008C000002301400020014090F83C30012B17D05C
:1008D000012380F83C3003689A6822F001029A6094
:1008E0009B68DB0707D4036C23F4885323F00103D0
:1008F00043F001030364002380F83C30184670473E
:100900000220704703689A6870B5560504460D4684
:100910000BD59B68D80508D5236C012043F0200334
:100920002364002384F83C3070BDFFF79FFE064629
:1009300023681A6892070CD56FF012021A60226CB5
:1009400042F4007222649A6812F0405F13D00020D3
:10095000EAE7691CEDD045B9236C032043F004039A
:100960002364002384F83C30DEE7FFF77FFE801B22
:10097000A842DDD9F0E7A269002AE8D1DA6A12F4C8
:10098000700F02D09B685B05E1D4236C23F4807365
:100990002364206C10F48050D9D1236C43F0010300
:1009A0002364C1E70368D86C704700000023F7B5E3
:1009B000019390F83C30012B6DD00C6801238E68B8
:1009C000092C80F83C30A5B2036830D905EB45020C
:1009D0004FF0070CDF681E3A0CFA02FC27EA0C07FE
:1009E000DF603B4FBC421DD1DA6842EA0662DA6042
:1009F0004968062901EB810229D8053A1F26596B5F
:100A0000964005FA02F221EA06015963596B0A433E
:100A10005A63304A934236D0002380F83C3018465F
:100A200003B0F0BDDF6806FA02F23A43DFE704EBF9
:100A300044024FF0070C1F690CFA02FC06FA02F29E
:100A400027EA0C071F611F693A431A61D0E70C2996
:100A50004FF01F010BD8233A1E6B914005FA02F2AA
:100A600026EA01011963196B0A431A63D1E7413A77
:100A7000DE6A914005FA02F226EA0101D962D96ADA
:100A80000A43DA62C5E7122C07D1134A536843F4CC
:100A900080035360C0E70220C2E70D4B9C4201D0A7
:100AA000112CB9D10C499C424A6842F400024A60B8
:100AB000B2D10A4B0A4A1B68B3FBF2F20A23534332
:100AC0000193019B002BA7D0019B013BF8E700BFDE
:100AD0001200001000200140002301401C010020F2
:100AE00040420F00074A0002D36800F4E06023F49C
:100AF000E0631B041B0C43F0BF6343F40033034368
:100B0000D360704700ED00E0164B70B5DC684FF025
:100B1000FF36C4F30224C4F10705231D042D28BFAA
:100B20000425062B06FA05F38CBF033C002400289D
:100B300021EA030303FA04F306FA04F422EA0404A4
:100B400043EA04034FEA0313DBB204DA00F00F00B8
:100B5000054A135470BD00F1604000F5614080F813
:100B60000033F7E700ED00E014ED00E04209012357
:100B700000F01F0003FA00F0014B43F82200704719
:100B800000E100E00138B0F1807F0AD2064BF0218D
:100B9000064A5860002082F82310072298601A60E5
:100BA00070470120704700BF10E000E000ED00E05A
:100BB0002DE9F04F0B6885B0DFF8C0810193002369
:100BC0006C4ADFF8BC914FF0010C019C0CFA03FC5D
:100BD00004EA0C06B44540F0B3804C6824F01007DA
:100BE000022F16D14FEAD30A03F0070B4FF00F0E76
:100BF00000EB8A0A4FEA8B0BDAF820500EFA0BFE54
:100C000025EA0E0E0D6905FA0BF545EA0E05CAF840
:100C100020504FEA430A0325D0F800B004F0030E39
:100C200005FA0AF5013F0EFA0AFEED43012F05EA27
:100C30000B0B4EEA0B0EC0F800E011D8876807EAEC
:100C4000050BCF6807FA0AFE4EEA0B078760476874
:100C500027EA0C0CC4F300179F4047EA0C074760D3
:100C6000C7683D408F6807FA0AF73D43C560E50055
:100C700066D5D8F8445023F0030703F0030C4FF077
:100C80000F0E45F4804507F180474FEA8C0CC8F8F9
:100C9000445007F59C37D8F8445005F48045039537
:100CA000039D0EFA0CF5D7F808A02AEA050E324D7E
:100CB000A8424CD005F58065A8424AD005F580656C
:100CC000A84248D005F58065A84246D005F5806564
:100CD000A84244D0484544D005F50065A84242D01A
:100CE00005F58065A84240D005F58065A8423ED054
:100CF00005F58065A84214BF0A25092505FA0CF5FB
:100D000014F4803F45EA0E05BD606FEA06071568DA
:100D10000CBF3D40354314F4003F156055680CBFCF
:100D20003D40354314F4801F556095680CBF3D402D
:100D30003543A4029560D56854BF3D403543D56026
:100D40000133102B7FF43FAF05B0BDE8F08F0025D5
:100D5000D4E70125D2E70225D0E70325CEE7042515
:100D6000CCE70525CAE70625C8E70725C6E7082515
:100D7000C4E700BF003C01400000024000380240D0
:100D8000001402400369194214BF0120002070477B
:100D90000AB1816170470904FBE743695940416129
:100DA00070472DE9F04104468AB000286DD090F8D4
:100DB000BD3303F0FF021BB980F8BC2307F0E2FE4D
:100DC000254603236E4604F1040855F8100B84F8F9
:100DD000BD3303F068F80FCD0FC60FCD0FC695E8F1
:100DE000030004F1100586E8030098E80E0020686F
:100DF000012603F017F80021206803F05AF80021BB
:100E000022462346084683F83C10A3F842100131DD
:100E100083F83D600F2983F83F001865C3E911008E
:100E200003F11C03EFD100231F4682F8FC3101338C
:100E300082F8FD711C320F2B82F8E371C2F8E87161
:100E4000C2F8EC71C2F8F471EFD10FCD6E460FC647
:100E50000FCD0FC695E8030086E8030098E80E0062
:100E6000206803F067F8012384F8387084F8BD33F4
:100E7000636A012B02D1204600F0ADFC206803F02C
:100E80005FFB00200AB0BDE8F0810120FAE790F88E
:100E9000BC33012B10B504460CD0012380F8BC33C1
:100EA000006803F041FB206802F0F7FF002084F89F
:100EB000BC0310BD0220FCE72DE9F04F066887B0A7
:100EC00004463046D6F8409003F075FB02900028A7
:100ED00040F04F81206803F03FFB002800F049817B
:100EE000206803F039FB820704D52268536903F0B8
:100EF00002035361206803F02FFB10F400250CD08F
:100F00002068002503F02CFB06F530678046DFF8EB
:100F1000CCB5B8F1000F40F02F81206803F01CFB26
:100F200041030BD52068274603F022FB00258246AB
:100F300006F51069BAF1000F40F09B81206803F0BC
:100F40000BFB002815DAD6F8043823F00103C6F8A5
:100F5000043894F8F033012B40F028820021204619
:100F600084F8F01307F062FF2268536903F000432E
:100F70005361206803F0F0FA02050BD5D6F8083863
:100F8000DB0702D5204607F069FE2268536903F4A7
:100F900000635361206803F0DFFA070114D523686A
:100FA0005A6902F000625A6194F8F023002A40F076
:100FB00001825B6D01212046C3F3830384F8F013A3
:100FC000C4F8F43307F032FF206803F0C5FAC00418
:100FD00035D506F500677B681021206823F00103F2
:100FE0007B6002F07DFF606806F510634FF67F318D
:100FF000029A904240F0E281FB6943F00113FB61E9
:10100000236B002B00F0EE81D7F8843043F00B0304
:10101000C7F884307B6C43F00B037B64D6F8003850
:1010200004F57072217C23F4FE632068C6F8003852
:1010300003F0E0FA2268536903F480535361206897
:1010400003F08AFA81041DD5206803F0B8FA2068FD
:10105000C36823F47053C36003F024F8002840F001
:10106000CA814FF400732268E0606361D36843F47F
:101070001053D360204607F0E0FD2268536903F463
:1010800000535361206803F067FAC3062BD522682A
:10109000936923F010039361376AC7F3434307F062
:1010A0000F09022B40F0278247F6F0731F4215D03C
:1010B0004FF01C08C7F30A17304608FB09483A46A8
:1010C000D8F8081203F0BEF9D8F808323B44C8F843
:1010D0000832D8F814321F44C8F814722268936991
:1010E00043F010039361206803F036FA070707D531
:1010F000204607F09EFD2268536903F00803536100
:10110000206803F029FAC60208D5E9B2204607F0A4
:10111000C5FD2268536903F480135361206803F00E
:101120001BFA800208D5E9B2204607F0B3FD226819
:10113000536903F400135361206803F00DFA410072
:1011400007D5204607F0AEFD2268536903F08043BF
:101150005361206803F000FA42070AD523685D68EE
:101160006B0702D5204607F0A1FD226853682B4388
:10117000536007B0BDE8F08F18F0010F75D0EAB2E8
:1011800020681146039203F0FBF910F0010F82462C
:1011900035D0012307EB4510D945039A83602369B5
:1011A00045D9012B16D1BB681B0402D54FF400436F
:1011B00083601C23016903FB0543C1F31201D3F8CB
:1011C00004C2ACEB0101C3F81412D3F80812614455
:1011D000C3F80812B34B99452BD1BB68190428D525
:1011E0004FF4004383602169012908D13DB9D4F847
:1011F000103223B904F57072206803F0FBF91AF07D
:10120000080F24D0A74A07EB4513914516D1BA68B9
:10121000120402D54FF400429A602269012A0FD1CC
:10122000BA6810040CD54FF400429A6008E0012B14
:10123000BFD01146204607F0EBFCD4E7D945ECD8E7
:101240002046039307F0DEFC0822039B9A601AF005
:10125000100F03D007EB451310229A601AF0200FED
:1012600003D007EB451320229A6001354FEA580856
:101270004FE61AF0010F7AD05FFA85FB20685946D5
:1012800003F087F910F0010F804624D0012005F00B
:101290000F02D6F83438594600FA02F223EA020364
:1012A0000246C6F8343809EB451398602369834237
:1012B000204602BFD7E911239B18BB6407F0B1FC9D
:1012C0002169012907D135B9236D23B904F570725D
:1012D000206803F08FF918F0080F03D009EB4513CD
:1012E00008229A6018F0100F03D009EB4513102262
:1012F0009A6018F0400F03D009EB451340229A6022
:1013000018F0020F03D009EB451302229A6018F07F
:10131000800F2CD023680393D7E91432A3EB020883
:101320007B6C984528BF984608F103039B080493FB
:10133000039B03F5106303EB45130593059B049A88
:101340009B699BB2934204D9D7E91432934200D9E6
:1013500093B9B8F1000F0AD1039B012203F5006B8A
:10136000AA40D3F8343823EA0203CBF834300135ED
:101370004FEA5A0A1C37DDE5A3EB02087B6C5A469C
:101380000398984528BF984608F103039B080493E7
:10139000237C00931FFA88F3B96C02F073FFBB6CD7
:1013A0004344BB647B6D43447B65C7E7204607F03D
:1013B0006DFCD9E5204607F051FC05E69960203325
:1013C00053F8202C22F4001243F8202CC3F8E81123
:1013D000D3F8E02122F40012C3F8E021029A01328E
:1013E000029205E67B6943F02B037B613B6943F086
:1013F0000B033B6112E60323E3604023636100F0CB
:101400005BFC294B294A03449342236804D8DA68D9
:1014100042F47052DA602DE6254A264902448A4297
:1014200003D8DA6842F46052F4E7A0F57402224966
:10143000A2F510528A4203D8DA6842F45052E9E722
:10144000A0F183721D49A2F5E7428A4203D8DA6807
:1014500042F44052DEE71A4A1A4902448A4203D84B
:10146000DA6842F43052D5E7174A184902448A42F2
:1014700003D8DA6842F42052CCE7154A15490244F1
:101480008A4203D8DA6842F41052C3E7A0F1B77277
:101490001149A2F558528A4222D8DA6842F4005221
:1014A000B8E700BF0A31544F405327FFFF340C0008
:1014B000401E1BFF3F420F007F4F12001FD613003C
:1014C00060B6E5FE5FE3160000D3CEFE3F771B005B
:1014D000C05BB3FEBF9121001F7538000A30544F26
:1014E0000D4A0E4902448A42DA6894BF42F4E0523F
:1014F00042F4C0528EE7062B7FF4F0AD4FF01C088B
:10150000082204F57071304602F09CFF08FB094880
:10151000C7F30A17DDE500BFE05459FEDF9C410028
:1015200090F8BC23012A10B504460BD0012280F8A4
:10153000BC2384F83810006802F0E6FF002084F82D
:10154000BC0310BD0220FCE770B501F00F05044696
:1015500011F0800F4FF01C06C5EBC5004FEA80006C
:101560001FD000F13C0106FB05460120214486F80E
:101570003D008A604A780D70CB7002B1CD80022B9D
:1015800004BF00230B7194F8BC33012B12D001234C
:10159000206884F8BC3302F093FD002084F8BC037B
:1015A00070BD00F5FE7106FB05460020214486F85B
:1015B000FD01DEE70220F3E710B5044601F00F005D
:1015C00011F0800F4FF01C02C0EBC0034FEA830301
:1015D00016D003F13C0102FB00420123214482F8B2
:1015E0003D30087094F8BC33012B12D001232068E1
:1015F00084F8BC3302F0A2FD002084F8BC0310BDC7
:1016000003F5FE7102FB00420023214482F8FD3104
:10161000E7E70220F3E738B501F00F051C2404FBCF
:10162000050104FB050401F5FE71C4F81032002326
:10163000C4F80822C4F8143284F8FD3184F8FC514F
:1016400003690068012B08BFC4F80C22DAB21DB987
:1016500002F0A4FD002038BD02F028FEFAE71C23AA
:1016600001F00F0103FB0101B1F81402704738B516
:1016700001F00F051C2404FB050104FB05043C31AB
:1016800023650023A2646365012384F83C5084F839
:101690003D3003690068012B08BFE264DAB21DB96E
:1016A00002F07CFD002038BD02F000FEFAE738B5FC
:1016B00001F00F05436804469D422ED811F0800FBB
:1016C0004FF01C021FD002FB050302FB05010122A3
:1016D0003C3381F83D2001221D709A7094F8BC13B0
:1016E00091421CD084F8BC231946206802F0B8FE51
:1016F0002DB904F57072217C206802F07BFF002078
:1017000084F8BC0338BD02FB010302FB0101002287
:1017100003F5FE7381F8FD21DDE70120F2E70220E9
:10172000F0E738B501F00F02436804469A422AD820
:10173000C2EBC20311F0800F4FF01C004FEA83038D
:1017400018D003F13C0100FB02400123214480F842
:101750003D3000250A708D7094F8BC33012B14D0F5
:101760000123206884F8BC3302F0A5FE284684F8E3
:10177000BC5338BD03F5FE7100FB02400023214439
:1017800080F8FD31E5E70120F3E70220F1E700688A
:10179000120470B5446A19B922438262002070BDF8
:1017A000836A4D1E04EB134400235E1CDBB29D4292
:1017B00005D83F31224300EB81004260EEE7403321
:1017C00000EB83035B6804EB13443346EDE70368E7
:1017D000002059627047012102680346C0F8F813DF
:1017E000002083F8F003936943F000639361536D25
:1017F00043F0805343F00303536570472DE9F341F1
:10180000044618B9012002B0BDE8F0810368D8078A
:1018100010D4236899075ED42368190700F1A380C8
:1018200023685A0700F1C480A269002A40F02E8183
:101830000020E8E7934B9A6802F00C02042A07D0D4
:101840009A6802F00C02082A0AD15B685A0207D58E
:101850008C4B1B689B03DCD56368002BD9D1D1E787
:101860006368884DB3F5803F11D12B6843F4803312
:101870002B60FEF7FBFE834D06462B689F03C8D402
:10188000FEF7F4FE801B6428F7D90320BBE79BB961
:101890002B6823F480332B602B6823F480232B6088
:1018A000FEF7E4FE06462B689803B2D5FEF7DEFE8F
:1018B000801B6428F7D9E8E7B3F5A02F2B6803D184
:1018C00043F480232B60D0E723F480332B602B6814
:1018D00023F48023CCE76B4B9A6812F00C0F07D0EF
:1018E0009A6802F00C02082A11D15B6859020ED4E2
:1018F000644B1A68920702D5E268012A82D11A68FD
:10190000216922F0F80242EAC1021A6084E7E36822
:101910005C4DBBB12B6843F001032B60FEF7A6FEC4
:1019200006462B689F0707D52B68226923F0F8032A
:1019300043EAC2032B606FE7FEF798FE801B022884
:10194000EFD9A2E72B6823F001032B60FEF78EFE90
:1019500006462B6898077FF55FAFFEF787FE801B72
:101960000228F6D991E76369464D83B16B6F43F066
:1019700001036B67FEF77AFE06466B6F9B073FF528
:101980004FAFFEF773FE801B0228F6D97DE76B6F21
:1019900023F001036B67FEF769FE06466B6F9F0736
:1019A0007FF53EAFFEF762FE801B0228F6D96CE79A
:1019B000344B1A6CD00027D41A6C012642F08052A6
:1019C0001A641B6C03F080530193019B2E4D2B680E
:1019D000D9051BD5A3682B4D012B27D12B6F43F0C5
:1019E00001032B6741F28835FEF740FE254F804604
:1019F0003B6F9B073FD5002E3FF416AF214A136C77
:101A000023F0805313640FE70026DFE72B6843F4CD
:101A100080732B60FEF72AFE07462B68DA05D9D4BF
:101A2000FEF724FEC01B6428F7D92EE7ABB92B6F55
:101A300041F2883823F001032B672B6F23F0040356
:101A40002B67FEF713FE07462B6F9807D3D5FEF7DB
:101A50000DFEC01B4045F7D917E7052B2B6F03D1AF
:101A600043F004032B67B9E723F001032B672B6FC7
:101A700023F00403B5E7FEF7F9FDA0EB0800A84248
:101A8000B6D902E70038024000700040244DAB6830
:101A900003F00C03082B3FF4B5AE2B68022A23F0A9
:101AA00080732B602FD1FEF7E1FD06462B6899016C
:101AB00023D4D4E907321343626A43EA8213E26A09
:101AC00043EA0263226B43EA0273A26A144C52088F
:101AD000013A43EA02436B602B6843F080732B604A
:101AE000FEF7C4FD054623689A013FF5A1AEFEF757
:101AF000BDFD401B0228F6D9C7E6FEF7B7FD801BE7
:101B00000228D3D9C1E6FEF7B1FD04462B689B013C
:101B10007FF58EAEFEF7AAFD001B0228F6D9B4E6CB
:101B200000380240134908B58B6803F00C03042BFE
:101B300003D0082B03D0104800E0104808BD4A68C5
:101B40004B68496802F03F0213F48003C1F3881127
:101B50001ABF0A4800230848A1FB0001FEF7C0FB9A
:101B6000044B5B68C3F3014301335B00B0FBF3F04C
:101B7000E4E700BF003802400024F40000366E01A4
:101B80002DE9F0410D46044610B90120BDE8F08171
:101B9000454A136803F00F038B4227D321688F0750
:101BA0002FD4C80742D4404A136803F00F03AB4256
:101BB00065D8226851076ED4130707D53B4A2169BF
:101BC000936823F4604343EAC1039360FFF7AAFFDD
:101BD000364B374A9B68C3F30313D35CD840354B6D
:101BE00018600020FEF7FCFC0020CFE7136823F00C
:101BF0000F030B431360136803F00F038B42C4D130
:101C0000CCE711F0040F294B03D09A6842F4E0525C
:101C10009A600E0703D59A6842F460429A609A6807
:101C2000A06822F0F00202439A60BAE761681F4B95
:101C300001291A681BD112F4003FA6D09A6841F21C
:101C400088381A4E22F003020A439A60FEF70EFD0E
:101C50000746B368626803F00C03B3EB820FA2D0AF
:101C6000FEF704FDC01B4045F3D903208EE702298F
:101C700002D112F0007FE0E712F0020FDDE71368F7
:101C800023F00F032B431360136803F00F03AB42E1
:101C90007FF47BAF8DE70549E0688B6823F4E05360
:101CA00003438B6088E700BF003C024000380240DD
:101CB00068A200081C010020014B1868704700BF93
:101CC0001C0100202DE9F7430268044612F00106CA
:101CD0000BD0BA4B996821F400019960466B996862
:101CE0003143B6FA86F67609996012F4002512D0CF
:101CF000B249E56BD1F88C30B5F5801F23F4401361
:101D000008BF012643EA050316BFB5FA85F500258D
:101D10006D09C1F88C30D70210D5A848216CD0F8D5
:101D20008C30B1F5800F23F4400343EA0103C0F87F
:101D30008C3000F0A981002908BF012512F0807FB6
:101D400018BF0126900631D59C4B9D4F1A6C42F06E
:101D500080521A641B6C03F080530193019B3B6813
:101D600043F480733B60FEF781FC80463B68D905F5
:101D700040F18C81914F3B6F13F4407340F091819F
:101D8000236B03F44072B2F5407F8C4A40F0AF8180
:101D9000916823F0704021F4F81120F44070014361
:101DA0009160C3F30B03116F0B4313672368DF06C6
:101DB0000CD5824AD2F88C1021F08071C2F88C10B8
:101DC000D2F88C10A06B0143C2F88C10580408D5CF
:101DD0007A49606ED1F8902022F440320243C1F873
:101DE0009020190408D57549A06ED1F8902022F4EE
:101DF00040220243C1F89020DA0308D56F49E06E13
:101E0000D1F8902022F440120243C1F890209F03A1
:101E100008D56A49206FD1F8902022F4400202438D
:101E2000C1F89020580608D56449606CD1F890201C
:101E300022F003020243C1F89020190608D55F4939
:101E4000A06CD1F8902022F00C020243C1F890203F
:101E5000DA0508D55949E06CD1F8902022F030021B
:101E60000243C1F890209F0508D55449206DD1F850
:101E7000902022F0C0020243C1F89020580508D5F6
:101E80004E49606DD1F8902022F440720243C1F8AF
:101E90009020190508D54949A06DD1F8902022F469
:101EA00040620243C1F89020DA0408D54349E06D4E
:101EB000D1F8902022F440520243C1F890209F04B0
:101EC00008D53E49206ED1F8902022F440420243CA
:101ED000C1F89020580208D53849A06FD1F8902059
:101EE00022F080620243C1F8902099020CD5334859
:101EF000E16FD0F89020B1F1006F22F0006208BFCE
:101F000001250A43C0F8902013F0080F18BF0125DF
:101F10005A0308D52949606FD1F8902022F0407209
:101F20000243C1F890201F0209D52449D4F880004B
:101F3000D1F8902022F080520243C1F8902058013D
:101F400009D51E49D4F88400D1F8902022F000521F
:101F50000243C1F89020190109D51849D4F8880026
:101F6000D1F88C2022F000720243C1F88C20DA00F4
:101F700009D51249D4F88C00D1F88C2022F0806267
:101F80000243C1F88C20012E00F0B580B3F1007F30
:101F900000F0B180012D75D1084D2B6823F08053DE
:101FA0002B60FEF763FB06462B689F0000F127813C
:101FB00021680E0306D5E36B43B103E0003802400D
:101FC00000700040CD021DD5236CDBB9934AD2F8D6
:101FD0008830D2F8880003F4403300F0E040034337
:101FE000606943EA8013A06943EA0063C2F888305D
:101FF000D2F88C30A06A23F4F853013843EA002366
:10200000C2F88C30880215D5E36FB3F1006F11D19F
:10201000824AD2F88830D2F8880003F0706300F06A
:10202000E0400343606943EA8013206A43EA0043C7
:10203000C2F888300A0719D57849D1F88820D1F834
:10204000883002F0706203F440331343626943EA5C
:102050008213E26943EA0273C1F88830D1F88C3008
:10206000E26A23F440331343C1F88C306B4C23688D
:1020700043F080532360FEF7F9FA054623689B007E
:1020800040F1C480002009E0012657E6FEF7EEFA91
:10209000A0EB080064287FF669AE032003B0BDE81A
:1020A000F083226B02F440729A423FF469AE3B6FB8
:1020B0003A6F23F4407342F480323A673A6F22F465
:1020C00080323A673B673B6FDA077FF559AEFEF720
:1020D000CDFA41F2883980463B6F9B073FF550AE01
:1020E000FEF7C4FAA0EB08004845F5D9D5E791689A
:1020F00021F4F81154E6494E336823F080633360CD
:10210000FEF7B4FA074633681B0172D42268D7077A
:1021100012D5636B83B9D6F88430D6F8841003F4F3
:10212000403301F070610B43616843EA8113A16899
:1021300043EA0173C6F88430160303D5E36BB3F5A5
:10214000801F05D0D0021ED5236CB3F5800F1AD1A5
:102150003249D1F88430D1F8840003F4403300F0E0
:10216000E0400343606843EA8013E06843EA0063A9
:10217000C1F88430D1F88C00636A20F01F00013B65
:102180000343C1F88C30D10111D52449D1F88430F2
:10219000D1F8840003F0706300F0E040034360680E
:1021A00043EA8013206943EA0043C1F88430920176
:1021B0000DD5236962681B0443EA8213E26843EA8F
:1021C0000263A26843EA0273144AC2F88430134ED1
:1021D000336843F080633360FEF748FA074633689C
:1021E0001B013FF5D7AEFEF741FAC01B6428F6D9B4
:1021F00053E7FEF73BFAC01B642884D94DE7FEF78E
:1022000035FA801B64287FF6CFAE46E7FEF72EFA3C
:10221000401B64287FF632AF3FE700BF0038024022
:1022200010B5044688B1437A03F0FF0213B9027275
:1022300006F04AF90223226800206372136843F013
:10224000040313600123637210BD0120FCE7F8B59D
:10225000037A04460E46012B21D00120637A834283
:1022600020720FD102236372FEF700FA074622683C
:10227000556815F0010508D093680020636033604D
:10228000012363720023237208E0FEF7EFF9C01BFD
:102290000228ECD90423032025726372F8BD0220C2
:1022A000FCE72DE9F043054689B00E46FEF7DEF95E
:1022B0000023814608212868CDE9003301F097FB0F
:1022C000044640BB296D2868090401F09BFC0446C4
:1022D00008BB4FF0FF320823302106902868CDE973
:1022E00002230223CDE90413012302A9079301F07D
:1022F0006BFB286801F0CFFC044660B9074640F24A
:102300002A482868436B13EA080F436B07D0190764
:1023100018D508248463204609B0BDE8F0839B02E9
:1023200007D501F095FA08AB03EB8703013743F8B3
:10233000200CFEF79BF9A0EB09000130E1D14FF032
:102340000044E8E7436B9A0701D50224E2E7436BB8
:102350009B0601D52024DDE740F2FF538363009BF9
:102360001BBA7360019B1BBA3360D4E72DE9F04FB1
:102370000D4687B0044690469946109EFEF776F9C2
:1023800007462DB9A36B43F00063A363012010E05F
:1023900094F83400C0B2012840F0BF8008EB090374
:1023A000E26D00219342A16306D9A36B43F0007351
:1023B000A36307B0BDE8F08F0323206884F83430AE
:1023C000636CC1624FF40071012B18BF4FEA4828BB
:1023D00001F00DFB50B1236840F2FF529A63A36BEA
:1023E0001843A063012084F83400E2E74FF0FF3384
:1023F0004FF0010A4FF0020B049000934FEA49237B
:102400006946206801939023CDF814A0CDE9023BE2
:1024100001F0DAFAD14525D9C4F830B04146206838
:1024200001F015FB0028D6D12068436B13F4957F8B
:10243000436B1ED0DB0509D5B9F1010F06D9636CDA
:10244000032B03D001F04CFB0028C4D123685A6B46
:1024500010072FD540F2FF529A63A36B43F0080395
:10246000A363BFE7C4F830A04146206801F0D7FA63
:10247000D8E71A040BD5A5F1040805F11C0A206859
:1024800001F0E6F948F8040FD045F8D1203526B11F
:10249000FEF7ECF8C01BB042C6D3236840F2FF52EF
:1024A00003209A63A36B43F00043A363012384F8E2
:1024B00034307EE75A6B910706D540F2FF529A639B
:1024C000A36B43F00203CBE75A6B920618D540F298
:1024D000FF529A63A36B43F02003C1E701F0B8F900
:1024E00045F8040B26B1FEF7C1F8C01BB04207D374
:1024F000236840F2FF529A63A36B43F00043AFE7B7
:102500002068436B13F40013E8D140F2FF5282635A
:102510000122184684F834204BE7A36B43F00053A4
:1025200033E72DE9F0430D4687B0044691461E4639
:102530000E9FFEF79BF880462DB9A36B43F0006316
:10254000A363012010E094F83400C0B2012840F0E9
:10255000A28009EB0603E26D00219342A16306D934
:10256000A36B43F00073A36307B0BDE8F0830323BC
:10257000206884F83430636CC1624FF40071012B21
:1025800018BF4FEA492901F032FA0246206832B1F9
:1025900040F2FF538363A36B1343A3630EE0012E4A
:1025A00010D920234946236301F081FA236878B1CA
:1025B00040F2FF529A63A36B1843A063012084F892
:1025C0003400D1E710234946236301F058FAEDE7C0
:1025D0004FF0FF32049069460092720201929022FD
:1025E000CDE9022001221846059201F0EDF920689C
:1025F000436B13F48D7F436B0BD0DD0527D5012E84
:1026000025D9636C032B22D001F06AFAF8B1236854
:10261000CEE75B0408D505F120092946043520687A
:1026200001F019F94D45F8D157B9236840F2FF522E
:1026300003209A63A36BA363012384F8343093E7E8
:10264000FEF714F8A0EB0800B842D0D3EDE72368FA
:102650005A6B110706D540F2FF529A63A36B43F001
:1026600008039AE75A6B920706D540F2FF529A6325
:10267000A36B43F0020390E7586B40F2FF5210F057
:1026800010009A6303D0A36B43F0100385E7012386
:1026900084F8343068E7A36B43F0005350E7436E8F
:1026A0009A0F0A70C3F383624A70C3F301628A709F
:1026B000C3F30742CA70C3F30722DBB20A714B713E
:1026C000836E1A0E120130B5CA80C3F30352CC8850
:1026D0002243CA80C3F303420A72C3F30722D40918
:1026E0004C72C2F380148C72C2F34014CC72C2F3E9
:1026F00000140C7300244C73446C002C40F0838055
:1027000092029B0002F4406203F47F730A610A693B
:102710001343C26E0B610B6943EA92730B61C2F300
:10272000C2630B75C2F302634B75C2F342538B75E0
:10273000C2F38243CB75D30B03F006030B76C2F3CF
:1027400007230C7EC2F3C03222430A760A690C7E4C
:1027500001320234A240012442650D7AAC40846506
:10276000640A6243C2654FF400720266C3F38012CA
:102770005B004A7603F07E038B76C36E8A7EC3F3DA
:10278000C01403F07F0322438A76CB76036FDA0FFF
:10279000C3F381500A77C3F341724A77C3F382626D
:1027A0008A779A0D02F00C02CA77CA7F0243002092
:1027B000CA77C3F3405281F82020C3F3004281F866
:1027C000210081F82220C3F3C03281F82320C3F313
:1027D000803281F82420C3F3403281F82520C3F3EE
:1027E000003281F82620C3F3812281F82720C3F329
:1027F0000122C3F3460381F8282081F82930012300
:1028000081F82A3030BD012C19D11B0403F47C134C
:102810000B61C36E0A691C0E42EA04220A61C3F30B
:1028200007420C69C3F3072322430A610A69013294
:1028300092024265C2654FF40072826595E70368B3
:1028400040F2FF529A63836B43F08053836301230A
:1028500080F834301846D5E770B5762398B0002557
:1028600004460C930AAB0B95CDE9095593E8070094
:1028700007AB8DE80700CDE9075520680ECB00F0C7
:10288000CBFF2068436823F48073436000F0E8FFC7
:1028900022680220536843F480735360FDF7ECFE16
:1028A0002068069501F04EF9064670B9206801F0DF
:1028B00071F9002874D04FF6FF75A664069B5A1C68
:1028C000AB42069208D14FF08076012084F83400A4
:1028D000A16B0E43A66361E00021206801F092F92C
:1028E000014610B14FF08056EFE7206801F0A2F9E1
:1028F00001460028F6D1206800F0CDFF0028DDDA7F
:102900000023636401232068ADF8163000F0ACFFAB
:10291000002800F09680636C032B1AD0206801F029
:10292000D2F90546002866D10146206800F0B3FFC1
:1029300004216067206800F0AEFF0821A0672068CE
:1029400000F0A9FF0C21E067206800F0A4FFC4F8A4
:102950008000636C032B46D1636C032B52D104219E
:10296000206800F098FF0DA9000DE0642046FFF7F5
:1029700096FE226D00232068120401F0CBF8054674
:10298000002838D104F1100393E80700231D8DE8D7
:10299000070020680ECB00F03FFF284618B070BD3E
:1029A00001234FF6FF75A364069B5A1CAB420692A7
:1029B00089D00021206801F025F90646002884D13D
:1029C0004FF08041206801F035F9064600287FF479
:1029D0007CAF0146206800F05EFF0028E4DA430087
:1029E0008ED501238DE70DF11601206801F096F9CF
:1029F00005460028B0D0012084F83400A36B1D43A5
:102A0000A563CBE7BDF8161020682165090401F025
:102A10006FF905460028EED10146206800F03BFF23
:102A200004216066206800F036FF0821A066206857
:102A300000F031FF0C21E066206800F02CFF2067D9
:102A40008DE74FF08065D6E710B50446A0B190F849
:102A5000343003F0FF0213B9027705F0C3FD0323FE
:102A6000204684F83430FFF7F7FE00200123A063EE
:102A7000206384F8343010BD0120FCE7436C0B6008
:102A8000836C4B60C36C8B60036DCB60436D0B61DB
:102A9000836D4B61C36D8B61036E0020CB6170470A
:102AA0000323F0B580F834308BB0436C04460E46F7
:102AB000032B02D0B1F5805F03D1A36B43F08053A9
:102AC00054E0B1F5006F00682BD10021CDE904116D
:102AD00000F0E1FE80011FD404A92046FFF7E1FBCE
:102AE00060B9059B590319D5216D2068090401F0CF
:102AF00089F818B90221206801F0B5F8A36B1843D2
:102B0000A063A56B27689DB340F2FF530120BB6310
:102B100084F834000BB0F0BD3046EFE74FF0806032
:102B2000ECE701BBCDE9041100F0B5FE820114D43D
:102B300004A92046FFF7B5FB60B9059BDB030FD561
:102B4000216D2068090401F05DF818B9014620687C
:102B500001F089F8A16B0843D2E74FF40060F9E770
:102B60004FF08060F6E7A36B43F00063A363C8E710
:102B700063680493A3680593E368CDE90636636947
:102B80000893A36909930AAB13E9070004AB8DE826
:102B9000070038460ECB00F03FFE0123284684F89C
:102BA0003430B7E7016D10B509040446006801F040
:102BB00009F9014628B9206800F06DFEC0F34320F2
:102BC00010BDA36B00201943A163F7E703685A689F
:102BD00022F0E0025A604268B2F5827F0AD1826830
:102BE000B2F5004F02D0B2F5806F03D11A6822F01F
:102BF00040021A60826AB2F5005F09D11A6822F4B5
:102C000000521204120C1A601A6842F400521A6040
:102C1000012380F85D30002380F85C30032070478A
:102C200070B505460C4616462B68986810F0800073
:102C300000D170BD621CF8D024B92846BDE87040B0
:102C4000FFF7C4BFFDF712FD801B8442ECD8F4E708
:102C5000F7B506460C4615461F4631688868204081
:102C600001D103B0F0BDB4F5C06F05D10A7BD2B27B
:102C70008DF807209DF807306B1CEFD02DB930463A
:102C800003B0BDE8F040FFF7A1BFFDF7EFFCC01BAC
:102C90008542E2D8F3E770B513460D4616460A465C
:102CA0004FF4C0510446FFF7D3FF28B1236E032031
:102CB00043F0200323660FE0324629462046FFF703
:102CC000AFFF0028F2D133462A464FF4C0612046B8
:102CD000FFF7BEFF0028E9D170BD70B5044600289B
:102CE0004AD00023836290F85D3003F0FF021BB9E5
:102CF00080F85C2005F036FD02232268E56884F840
:102D00005D301368B5F5E06F23F0400313604FF0BA
:102D1000000333D84FF4805100D0A362236B2BB94A
:102D2000B5F5E06F8CBF022301232363A069D4E9CA
:102D3000013633432669334366693343E6693343D7
:102D4000266A3343A66A334300F40076000C33430B
:102D500000F004001360636A2B43656B2B4303434D
:102D600000200B435360D36923F40063D361012334
:102D7000206684F85D3070BD0120FCE71946B5F58A
:102D8000706FC9E72DE9F3411E4690F85C300446A8
:102D90000D46012B904600F09780012380F85C30AF
:102DA000FDF764FC074694F85D00C0B2012840F0CE
:102DB0008980002D60D0B8F1000F5DD00323A26898
:102DC000A56384F85D30B2F5004F4FF00003A4F81E
:102DD0003C8023662364A4F83E80A4F84430A4F821
:102DE0004630C4E91333236803D11A6842F48042A1
:102DF0001A601A68520603D41A6842F040021A6038
:102E0000E368B3F5E06F1CD8E38F9BB2EBB12368A6
:102E10009A68920749D5E28F012A3ED935F8022BEC
:102E2000DA60E38F023B9BB2E387EDE723689A68A1
:102E300090071FD535F8022BDA60E38F013B9BB278
:102E4000E387E38F9BB2002BF0D13A463146204610
:102E5000FFF721FF002832D1A36833B9019323681B
:102E6000DA6801929B680193019B206E003018BFC5
:102E7000012001E04EB90320012384F85D300023D6
:102E800084F85C3002B0BDE8F081711CD9D0FDF748
:102E9000EDFBC01BB042D4D3EDE72A7801351A739D
:102EA000E38F013B9BB2E387AEE7002EE3D0731CB8
:102EB000AAD0FDF7DBFBC01BB042A5D3DBE7202384
:102EC0002366C9E70220D7E70220DBE72DE9F843B4
:102ED0001F4690F85C3004460D46012B1646DDF87F
:102EE000208000F00F81012380F85C30FDF7BEFBED
:102EF00094F85D3081466168DBB2012B0AD0B1F5F0
:102F0000827F40F0FB80A268002A40F0F780042B0B
:102F100040F0F480002D00F0F380002E00F0F080EF
:102F2000002F00F0ED8094F85D30042B02D00523D3
:102F300084F85D30E06800232664B0F5E06F236616
:102F4000A4F84470A4F84670A563E787A787C4E98E
:102F50001333236803D8B4F84620012A2ED95A68BF
:102F600022F480525A601A68570603D41A6842F055
:102F700040021A60B0F5E06F58D919B1E28F92B2F1
:102F8000012A06D135F8022BDA60E38F013B9BB2B0
:102F9000E3870127E38F9BB2A3B9B4F846309BB215
:102FA00083B94A4641462046FFF775FE002840F0A7
:102FB000A280206E003018BF01202FE05A6842F432
:102FC0008052CFE777B1E38F9BB25BB123689A68F9
:102FD000920707D535F8022B0027DA60E38F013B13
:102FE0009BB2E387B4F846309BB26BB123689A6812
:102FF000D00709D5DB68012726F8023BB4F8463034
:10300000013B9BB2A4F84630B8F1FF3FC2D0FDF7B8
:103010002DFBA0EB09008045BCD80320012384F8D8
:103020005D30002384F85C30BDE8F88319B1E28F8D
:1030300092B2012A06D115F8012B1A73E38F013BD6
:103040009BB2E387012739E08FB1E38F9BB273B165
:1030500023689A6891070AD5E28F012A38D935F892
:10306000022BDA60E38F023B9BB2E3870027B4F8C0
:1030700046309BB2CBB123689A68D20715D5B4F815
:103080004620012A2CD9DA6826F8022BB4F846200B
:10309000023A92B2A4F84620B4F84620012A03D896
:1030A0005A6842F480525A600127B8F1FF3F05D0B8
:1030B000FDF7DCFAA0EB09008045AED9E38F9BB2A7
:1030C000002BC1D1B4F846309BB2002BBCD168E7CD
:1030D0002A7801351A73E38F013B9BB2E387C5E77A
:1030E0001B7B013606F8013CB4F84630013B9BB22D
:1030F000A4F84630D8E7202323665AE702208DE75C
:1031000001208BE702208FE7036A10B5046A23F0E1
:103110000A0324F001040B430462846924F0F004E0
:1031200044EA02128261036210BD036A23F01003B5
:1031300010B503628469036A24F4704423F0A00389
:1031400044EA023243EA01138261036210BD02685D
:10315000022380F83D30136843F00103136001231C
:1031600080F83D300020704770470000304A036807
:10317000904212D0B0F1804F0FD0A2F57C42904225
:103180000BD002F58062904207D002F58062904237
:1031900003D002F57842904219D14A6823F07003B7
:1031A0001343234A904229D0B0F1804F26D0A2F594
:1031B0007C42904222D002F5806290421ED002F5FD
:1031C000806290421AD002F57842904216D0194A95
:1031D000904213D002F5806290420FD002F58062D7
:1031E00090420BD0A2F59832904207D002F580624F
:1031F000904203D002F58062904203D123F44073E1
:10320000CA6813434A6923F08003134303608B6841
:10321000C3620B688362064B984203D003F5806358
:10322000984201D10B69036301234361704700BFDA
:10323000000001400040014010B50446A0B190F8E4
:103240003D3003F0FF021BB980F83C2005F066FB1F
:1032500002232068211D84F83D30FFF787FF0123FA
:10326000002084F83D3010BD0120FCE710B5044675
:10327000A0B190F83D3003F0FF021BB980F83C206C
:10328000FFF772FF02232068211D84F83D30FFF70D
:103290006DFF0123002084F83D3010BD0120FCE7C4
:1032A000036A23F0010370B50362036A426884690C
:1032B00023F002030D6824F4803424F073042C43BB
:1032C0008D682B430C4DA84203D005F58065A842BC
:1032D0000BD1CD6823F0080322F440722B43D1E9CF
:1032E000055623F0040335432A4342604A6884614B
:1032F0004263036270BD00BF00000140036A23F017
:10330000100370B50362036A4268846923F02003E6
:103310000D6824F0807424F4E64444EA05248D68A2
:1033200043EA05130D4DA84203D005F58065A84278
:103330000DD1CD6823F0800322F4406243EA0513E7
:10334000D1E9055623F04003354342EA8502426045
:103350004A6884618263036270BD00BF000001405F
:10336000036A23F4807370B50362036A4268C46918
:1033700023F400730D6824F4803424F073042C4388
:103380008D6843EA05230D4DA84203D005F58065FD
:10339000A8420DD1CD6823F4006322F4405243EAE1
:1033A0000523D1E9055623F48063354342EA05122B
:1033B00042604A68C461C263036270BD000001409C
:1033C000036A23F4805330B50362026A4468C36918
:1033D00022F400520D6823F0807323F4E64343EA9D
:1033E00005238D6842EA0532084DA84203D005F551
:1033F0008065A84204D124F480444D6944EA8514D0
:103400004460C3614B680364026230BD0000014048
:1034100010B50A43846842EA032324F47F4423431B
:10342000836010BD90F83C30012B10B504464FF07E
:10343000020018D084F83D000123206884F83C3055
:1034400082683E4B134083600B68402B59D015D8DF
:10345000102B67D008D8002B5ED00123002084F801
:103460003D3084F83C0010BD202B61D0302BF4D1CE
:10347000836823F0700343F0370326E0702B26D0D7
:103480000ED8502B32D0602BE7D1CA684968FFF7BD
:103490004CFE2268936823F0700343F0670323E037
:1034A000B3F5805F0CD0B3F5005FD6D1CB68D1E91E
:1034B0000121FFF7ADFF2268936843F4804313E0D6
:1034C000836823F4803323F007038360C5E7CB6868
:1034D000D1E90121FFF79CFF2268936823F4803330
:1034E00023F0770343F077039360B6E7CA6849682F
:1034F000FFF70AFE2268936823F0700343F0570336
:10350000F2E7CA684968FFF7FFFD2268936823F075
:10351000700343F04703E7E7836823F0700343F049
:103520000703D2E7836823F0700343F01703CCE767
:10353000836823F0700343F02703C6E78800FEFF8B
:1035400010B50124036A8A408C4023EA0403036215
:10355000036A1A43026210BD10B5044601220068D6
:10356000FFF7EEFF2368084A934203D002F580621A
:10357000934203D15A6C42F400425A641A68002004
:1035800042F001021A6010BD00000140FFF7E4BFE5
:10359000036A23F4803330B50362026A4468436DE2
:1035A00022F400320D6823F4803323F070032B43A0
:1035B0008D6842EA0542094DA84203D005F58065B1
:1035C000A84204D124F480344D6944EA05244460BF
:1035D00043654B688365026230BD00BF0000014057
:1035E000036A23F4801330B50362026A4468436DB2
:1035F00022F400120D6823F0807323F4E04343EAC1
:1036000005238D6842EA0552084DA84203D005F50E
:103610008065A84204D124F480244D6944EA8524BD
:10362000446043654B68C365026230BD00000140E1
:1036300090F83C30012B30B51CD002680E4D536819
:10364000AA42946803D005F58065AA4203D123F409
:1036500070034D682B430D6823F07003896824F0D4
:1036600080042B43214353600023916080F83C3059
:10367000184630BD0220FCE70000014038B590F844
:103680003C3004460D460220012B10D00123082AAD
:1036900084F83D0084F83C3043D009D8FAB1042ABC
:1036A0002ED00123002084F83D3084F83C0038BD42
:1036B000102A47D0142A56D00C2AF2D12068FFF7DE
:1036C0007FFE23682969DA6942F40062DA61DA6907
:1036D00022F48062DA61DA6942EA012230E020688D
:1036E000FFF7DEFD236829699A6942F008029A61B2
:1036F0009A6922F004029A619A690A439A61D0E7B2
:103700002068FFF7FBFD236829699A6942F400628B
:103710009A619A6922F480629A619A6942EA012266
:10372000ECE72068FFF71CFE23682969DA6942F09C
:103730000802DA61DA6922F00402DA61DA690A431E
:10374000DA61AEE72068FFF723FF236809695A6D45
:1037500042F008025A655A6D22F004025A655A6D09
:103760000A435A659DE72068FFF73AFF2368096915
:103770005A6D42F400625A655A6D22F480625A65AD
:103780005A6D42EA0122ECE7114B4FF4FA521B68E2
:10379000B3FBF2F241F28833534313F1FF3314D3F6
:1037A000426B12F0450FF8D0436B5B0703D504233F
:1037B000836318467047436B13F0010301D0012364
:1037C000F6E740F2FF528263F3E74FF00043F0E781
:1037D0001C0100200F4B4FF4FA521B68B3FBF2F2AE
:1037E00041F28833534313F1FF330FD3426B12F08E
:1037F000450FF8D0436B13F0040303D00423836315
:103800001846704740F2FF528263F9E74FF00040DC
:10381000704700BF1C01002084B010B503AC84E8E1
:103820000E000B46049942680B43059922F4FD42B1
:103830000B43069922F07F020B4307990B4308992B
:103840000B43BDE81040134304B0436000207047B1
:10385000D0F8800070470B68C0F8803000207047B7
:103860000323036000207047006800F003007047E6
:103870000B6810B58360C268D1E9013422F47F621D
:103880002343CC68096922F00F0223430B431343FF
:10389000C360002010BD143082B0002301440193A6
:1038A0000191019B186802B070470000444B10B5AD
:1038B0001B684FF4FA54B3FBF4F35A43002A49D07F
:1038C000436B013A13F0450FF8D0436B5C0703D507
:1038D00004238363184610BD436B13F0010301D02A
:1038E0000123F6E70269D2B2914236D140F2FF528B
:1038F00019468263FFF7CFFF324B0340002BE9D01C
:1039000000282CDB42002DD484002DD4C1002DD4FE
:1039100002012ED444012FD4C10130D4020231D48B
:10392000440232D4810233D4C20234D4440335D4A5
:10393000810336D4C20337D4040438D4410439D4C3
:1039400082043AD410F0080F14BF4FF400034FF470
:103950008033BFE74FF00043BCE70123BAE74FF0E5
:103960000073B7E74023B5E78023B3E74FF48073D4
:10397000B0E74FF40073ADE74FF48063AAE74FF46C
:103980000063A7E74FF48053A4E74FF40053A1E787
:103990004FF480439EE74FF400439BE74FF400331E
:1039A00098E74FF4802395E74FF4002392E74FF414
:1039B00080138FE74FF400138CE74FF4800389E7FF
:1039C0001C01002008E0FFFD0B6810B543624B6846
:1039D0008362C26AD1E9023422F0F70223430C6900
:1039E000496923430B431343C362002010BD30B524
:1039F000402387B0102400220546019101A9CDE99A
:103A000002434FF48063CDE90423FFF731FF41F215
:103A1000883221462846FFF749FF07B030BD30B550
:103A2000402387B0112400220546019101A9CDE968
:103A300002434FF48063CDE90423FFF719FF41F2FD
:103A4000883221462846FFF731FF07B030BD30B538
:103A5000402387B0122400220546019101A9CDE937
:103A600002434FF48063CDE90423FFF701FF41F2E5
:103A7000883221462846FFF719FF07B030BD30B520
:103A8000402387B0182400220546019101A9CDE901
:103A900002434FF48063CDE90423FFF7E9FE41F2CE
:103AA000883221462846FFF701FF07B030BD30B508
:103AB000402387B0192400220546019101A9CDE9D0
:103AC00002434FF48063CDE90423FFF7D1FE41F2B6
:103AD000883221462846FFF7E9FE07B030BD0000D6
:103AE00030B5002387B00C244022054601A9CDE95A
:103AF0000323CDE901344FF480630593FFF7B8FE4B
:103B0000034A21462846FFF7D1FE07B030BD00BF6B
:103B100000E1F50530B5402387B007240546019242
:103B2000002201A9CDE902434FF48063CDE90423CB
:103B3000FFF79EFE41F2883221462846FFF7B6FE87
:103B400007B030BD10B5002386B0044601A9CDE909
:103B50000133CDE903334FF480630593FFF788FE0B
:103B60000B4B4FF4FA521B68B3FBF2F241F288336D
:103B7000534313F1FF3308D3626B1206F9D540F2B9
:103B8000FF530020A36306B010BD4FF00040FAE7DA
:103B90001C01002010B54FF4D57286B008234021D7
:103BA0000446CDE901230023CDE903134FF48063DC
:103BB00001A90593FFF75CFE114B4FF4FA521B6805
:103BC000B3FBF2F241F28833534313F1FF3314D3C2
:103BD000626B12F0450FF8D0626B12F0040204D051
:103BE00040230420A36306B010BD606B10F04000BA
:103BF000F9D040231046A363F5E74FF00040F2E709
:103C00001C01002030B5402387B037240022054630
:103C1000019101A9CDE902434FF48063CDE904236A
:103C2000FFF726FE41F2883221462846FFF73EFE86
:103C300007B030BD41F000412922402341F48011FA
:103C400010B586B00446CDE9022301914FF480639C
:103C50000021CDE9041301A9FFF70AFE2046FFF772
:103C6000B9FD06B010BD30B5402387B00624002250
:103C70000546019101A9CDE902434FF48063CDE9E6
:103C80000423FFF7F5FD41F2883221462846FFF76D
:103C90000DFE07B030BD30B5002387B0332440227D
:103CA000054601A9CDE90323CDE901344FF4806332
:103CB0000593FFF7DDFD41F2883221462846FFF7E4
:103CC000F5FD07B030BD10B5002386B002220446D2
:103CD00001A9CDE90132C022CDE903234FF480636D
:103CE0000593FFF7C5FD2046FFF74EFD06B010BD5A
:103CF00010B5092286B0C023044601910021CDE908
:103D000002234FF48063CDE9041301A9FFF7B0FD4E
:103D10002046FFF739FD06B010BD000030B5002386
:103D200087B003220D4601A90446CDE901324022A5
:103D3000CDE903234FF480630593FFF799FD204BF2
:103D40004FF4FA521B68B3FBF2F241F2883353434B
:103D500013F1FF332BD3626B12F0450FF8D0636B76
:103D60005A0703D50420A06307B030BD616B11F082
:103D7000010101D00120F6E72369DBB2032B19D141
:103D800040F2FF532046A363FFF785FD10F4604324
:103D900003D1000C28801846E6E743040CD410F445
:103DA000004F14BF4FF480504FF48030DCE74FF0E9
:103DB0000040D9E70120D7E74FF40050D4E700BF17
:103DC0001C01002030B5402387B00D240022054699
:103DD000019101A9CDE902434FF48063CDE90423A9
:103DE000FFF746FD41F2883221462846FFF75EFD87
:103DF00007B030BD0A4B013B0FD00269002AFADA46
:103E00000369074A43F001030361013A05D00369DE
:103E100013F00103F9D1184670470320704700BF23
:103E2000410D030084B038B505AD044685E80E00A9
:103E30000A9B012B27D1836B23F480338363C368F0
:103E400023F4840323F04003C360C36823F44013C6
:103E5000C360119B012B03D1C36843F48013C3607B
:103E60002046FFF7C7FF089B012B07D1A36843F04B
:103E70000603A360A36843F02003A3600020BDE80D
:103E8000384004B07047C36843F04003C360FFF795
:103E9000B1FF4FF48033A363E5E7836843F0010388
:103EA000836000207047836823F001038360002053
:103EB000704708B5C368012923F0C043C36008D127
:103EC000C36843F00053C3603220FCF7D5FB0020E9
:103ED00008BD19B9C36843F08043F4E70120F7E750
:103EE0008901074A41F020010161013A05D00369C7
:103EF00013F02003F9D1184670470320704700BF24
:103F0000410D03001023064A0361013A05D00369FD
:103F100013F01003F9D1184670470320704700BF13
:103F2000410D0300D0F800381943C0F800180020F4
:103F30007047000084B02DE9F843044609A888467C
:103F400080E80E0000230E99139E1D46DDE90B2725
:103F500003F14000013304EB80000F2B4560F7D1E3
:103F6000A36B43F40013A3635EB9A36B23F40013A4
:103F7000A363236843F040032360236843F0800376
:103F800023600023012904F50065C4F8003ED4F83D
:103F90000038C4F8003858D1002A54D100212046F6
:103FA000FFF7C0FF10212046FFF79AFF2046FFF7DA
:103FB000A9FF002304F510624FF0904019464FF01E
:103FC000006C4FF67F3E2B616B61EB61434540D146
:103FD000002104F530624FF0904C4FF0006E08461F
:103FE0004FF67F388B4246D12B69012F23F4807323
:103FF0002B6107D1294B2B632B6B43F4803343F0A8
:1040000003032B630023A3616FF0804363611FB937
:10401000A36943F01003A361A269214B1343A36179
:104020000F9B1BB1A36943F00803A361012E05D1C7
:10403000A36943F0804343F00403A3610020BDE87B
:10404000F84304B070470121A9E70329A4D0032154
:10405000A5E7D2F80090B9F1000F0ADA3BB9C2F82F
:1040600000C011610133C2F808E02032AEE71060F1
:10407000F7E71160F5E7D2F80090B9F1000F0BDA1D
:1040800039B9C2F800E010610131C2F8088020326D
:10409000A8E7C2F800C0F6E71060F4E7000180006E
:1040A00000383C80D0F8083813F0060007D09B0792
:1040B00004D4042814BF0020022070470320704756
:1040C00030B50D78012400F5006205F00F0300EB18
:1040D00045109C404B78012BD36918D11C43D46107
:1040E000D0F800391A0410D48B68C978C3F30A03D6
:1040F000D0F8002943F0805343F4004343EA81435E
:1041000043EA85531343C0F80039002030BD43EA29
:104110000444D461D0F8003B1B04F6D48B68C97802
:10412000C3F30A03D0F8002B43F0805343F4004359
:1041300043EA81431343C0F8003BE6E730B50C780F
:1041400000F500624978012304F00F0500EB4410EC
:104150000129D16B03FA05F30DD1DB431940D1637B
:10416000D1690B40D3610B4BD0F800291340C0F844
:104170000039002030BD6FEA03431940D163D16993
:104180000B40D361044BD0F8002B1340C0F8003B28
:10419000EFE700BF007833EC0078F3EF4B78DFF8FF
:1041A000E0C0012BF0B50D784E6900EB4514334F9C
:1041B00043D104F51063BEB91869012A00EA07006B
:1041C0001861186940F400201861186900EA0C00B1
:1041D000186101D10A695A61D4F8003943F00443E7
:1041E000C4F800390020F0BDD3F810E00EEA0C0C42
:1041F000C3F810C0D3F810C00CEA07071F618F681E
:10420000B7421E6938BF4F6146F400264F69012A44
:104210001E61C7F31206D3F810C046EA0C061E61F1
:10422000D8D0002FD8D005F00F050123D0F83428BE
:10423000AB401343C0F83438CEE704F53063186957
:1042400000EA0C001861186938401861886806B1E6
:1042500048611D69C0F31200012A45F400251D6163
:104260001D6940EA0500186101D1CA685A61D4F895
:10427000003B43F00443C4F8003BB3E7FFFF07E013
:104280000000F8FF10B59DF808404CB9033300EB6F
:1042900002309B0800F5805001EB8303994201D165
:1042A000002010BD51F8042B0260F7E72DE9F3411F
:1042B00091F801E00D78BEF1010F4B6900EB451557
:1042C000CE78DFF878C1DFF878815FD105F510642A
:1042D000002B32D1266906EA0C062661266946F4CF
:1042E00000262661266906EA0806012A266101D110
:1042F0000E696661CE78012E0CD1D0F8084814F40E
:10430000807FD5F800490CBF44F0005444F080543D
:10431000C5F80049D5F80049012E44F00444C5F819
:10432000004906D10C789BB200922246C968FFF77B
:10433000A9FF002002B0BDE8F0812769012E07EA3D
:1043400008072761276907EA0C07D1F808C0276129
:104350000CEB0307D4F8108007F1FF37B7FBFCFC28
:10436000354F07EACC4747EA08072761C3F312072E
:10437000D4F810C047EA0C0727614ED1266926F011
:10438000C0462661266946F00056AEE705F530675F
:104390003C6904EA08043C613C6904EA0C04D1F875
:1043A00008C03C6113BB3C69CCF3120323433B615F
:1043B0003B6943F40023012A3B6101D1CB687B6157
:1043C000012E0CD1D0F8083813F4807FD5F8003BCB
:1043D0000CBF43F0005343F08053C5F8003BD5F8C1
:1043E000003B43F00443C5F8003BA2E70CEB030499
:1043F000114BD7F810E0013CB4FBFCF403EAC443D2
:10440000A4B243EA0E033B610CFB04F3D7F810E0BF
:10441000C3F3120343EA0E03CDE7012A3FF468AF6A
:104420000C78D0F8347804F00F040EFA04F43C430E
:10443000C0F834485EE700BF0000F81FFFFF07E048
:104440000000F8FF033200F58050920801EB820271
:10445000914201D108467047036841F8043BF7E7F1
:104460004A780B78012A00EB431012D1D0F80029CA
:10447000002A06DB2BB1D0F8003923F08043C0F8C6
:104480000039D0F8003943F40013C0F80039002097
:104490007047D0F8002B002A06DB2BB1D0F8003B88
:1044A00023F08043C0F8003BD0F8003B43F40013F6
:1044B000C0F8003BEBE70B784A7800EB4310CB7871
:1044C000012AA3F10203DBB20FD1D0F80029012B9E
:1044D00022F40012C0F8002905D8D0F8003943F0C2
:1044E0008053C0F8003900207047D0F8002B012B12
:1044F00022F40012C0F8002BF5D8D0F8003B43F0AE
:104500008053C0F8003BEEE7D0F80038090123F4EF
:10451000FE6301F4FE61C0F80038D0F8003819439A
:10452000C0F800180020704708B5D0F8043823F010
:104530000203C0F804380320FCF79EF8002008BDF1
:1045400008B5D0F8043843F00203C0F8043803205B
:10455000FCF792F8002008BD42698069104070475E
:10456000D0F8183800F50060C0691840000C70479A
:10457000D0F8183800F50060C069184080B2704764
:1045800000EB411100F50060D1F8082B40691040A4
:10459000704710B5D0F81048D0F8343800EB41100F
:1045A00001F00F0100F51060CB408068DB01DBB249
:1045B0002343184010BD406900F001007047D0F857
:1045C000003923F4FF6323F00703C0F8003900F536
:1045D00000639A6802F00602042A05D1D0F8002987
:1045E00042F00302C0F800295A68002042F48072A9
:1045F0005A60704710B500240129C0F8104BD0F85C
:10460000104B44F40024C0F8104BD0F8104B44F089
:104610001804C0F8104BD0F8104B44F0C044C0F858
:10462000104B05D14FF08023C0F8142BC0F8003B8D
:10463000002010BDD0F8943210B56BB1D0F8904284
:1046400094F80002FF2807D09B68214694F80122C5
:104650009847FF2384F80032002010BD43230380D5
:104660000048704740000020432303800048704703
:10467000840000204323038000487047D4000020BA
:104680000A23038000487047C800002038B505465B
:10469000D0F8904204F0C4FBD5F89032C4F80C0274
:1046A0004BB1D5F8943204F50371D4F80402DB68F9
:1046B0009847002038BD0220FCE7F8B5D0F890629A
:1046C000D6B1142303FB0103DD698DB1D0F8984204
:1046D0001C2707FB0142526CB5FBF2F402FB145499
:1046E00034B9DC612246234604F07EFB2046F8BD47
:1046F0000020C6F81402FAE70220F8E72DE9F74394
:104700000A784FF0000805460E4612F06004D0F813
:1047100090728DF80580ADF8068028D0202C45D108
:10472000CC884B78E4B1120611D5D0F894223946E2
:104730001846D2F808902246C847F28839462846DB
:1047400000F04FFC4446204603B0BDE8F08387F8F4
:104750000032224687F80142394600F057FCF1E763
:10476000D0F89422184695682246A847EBE74F7880
:104770000A2F0DD00B2F15D0C7B990F87432032B28
:1047800014D102220DF1060100F02BFC3C46DAE7C1
:1047900090F87432032B09D101220DF1050100F0CC
:1047A00020FCD0E790F87432032BCCD03146284659
:1047B00000F0F0FB0224C6E738B50446002581214D
:1047C00004F0C6FA0121E562204604F0C1FAC4F8FB
:1047D00058518221204604F0BBFAD4F89032256467
:1047E0004BB1D4F894325B689847D4F8900204F047
:1047F00013FCC4F89052002038BD037C2DE9F04131
:104800000446CBBB4FF4007302228121012504F042
:104810008FFA4FF40073E56229460222204604F025
:1048200087FAC4F858510125082303228221204623
:1048300004F07EFA25644FF4077004F0E5FB0646A9
:10484000C4F8900250B3D4F8943200271B689847FC
:1048500094F81080C6F81472C6F81872B8F1000FF8
:1048600013D14FF40073D6F804222946204604F0F1
:10487000C9FA4046BDE8F08101254023022281218A
:1048800004F056FAE5624023C6E74023D6F8042236
:104890002946204604F0B6FA3846EBE72846E9E711
:1048A00019B1C0F894120020704702207047D0F868
:1048B00090320020C3F80812C3F810227047D0F8D5
:1048C00090320020C3F804127047D0F8902210B53F
:1048D00082B1D2F81442012374B9C2F81432812192
:1048E000D2F81032D2F8082203639BB204F07CFAAB
:1048F000204610BD0220FCE71846FAE7D0F89022C7
:1049000010B562B1047CD2F8042234B94FF40073BC
:10491000012104F077FA002010BD4023F8E70220BF
:10492000FAE708B580B1D0F88C3213B10023C0F893
:104930008C3209B1C0F888120123027080F87432F9
:1049400004F0B8F9002008BD0220FCE719B1C0F856
:104950008C12002070470220704708B504F0DAF985
:10496000002008BD08B5D0F88C320BB9022008BD74
:104970001B6898470028FAD0F8E708B5D0F88C32C1
:104980005B689847002008BD38B500F520750446DF
:10499000284600F0EBFA012394F88012C4F86C3238
:1049A000B4F88632C4F8703201F01F03012B0ED028
:1049B00007D3022B10D001F08001204604F0D6F975
:1049C00003E02946204600F001F9002038BD2946C1
:1049D000204600F01DFAF8E72946204600F03DFA8F
:1049E000F3E770B50546164639BBD0F86C32032B99
:1049F0001ED1D0F84C31D0F8502193420BD99B1ADC
:104A000031469A42C0F84C318CBF9AB292B200F053
:104A10000CFB002070BDD0F88C321B6923B190F8DC
:104A20007422032A00D19847284600F006FBF0E7DD
:104A3000052BEED104F09AF9EBE7D0F88C329B69A4
:104A40002BB190F87422032A01D19847E1E70220A4
:104A5000E0E770B5134604460E46002947D1D0F86A
:104A60006C22022A3CD1D0E90852954213D9AA1AE5
:104A70001946026292B200F0C1FA33461A4619464C
:104A8000204604F0BFF994F878320020012B01D1C0
:104A900084F8780270BDC369B3FBF2F502FB1535EB
:104AA00065B99A420AD8D0F87022934206D22A46B3
:104AB00000F0A4FAC4F870522B46DFE7D4F88C3229
:104AC000DB682BB194F87422032A01D12046984761
:104AD0008021204604F04AF9204600F0B9FAD2E7D6
:104AE00032F00403CFD1802104F040F9CBE7D0F8B5
:104AF0008C325B6933B190F87422032A02D1984753
:104B00000020C7E70220C5E70022402370B5044615
:104B100001254026114604F00BF980213346C4F8E4
:104B20004451C4F850610022204604F001F90021EC
:104B3000D4F89032A561666284F87452C4F86C129D
:104B40006160C4F87C1223B1D4F88C3220465B68D3
:104B50009847002070BD01740020704790F87432AF
:104B600080F87532042380F874320020704790F882
:104B7000753280F874320020704708B590F87422BE
:104B8000032A04D1D0F88C32DB6903B198470020A6
:104B900008BD0020704700207047002070470122A8
:104BA000017908B580F87422D0F88C2252689047B9
:104BB000002008BD10B50446802104F0D7F800217C
:104BC0002046BDE8104004F0D1B8000037B50B789E
:104BD00004460D4603F06003202B14D0402B12D066
:104BE000002B40F093804B78092B00F28F80DFE898
:104BF00013F0E70001018D00FA008D008200130020
:104C00008D00D200A000D4F88C32294620469B6843
:104C10009847002003B030BD4B881A0A013A0E2A8B
:104C200074D8DFE802F02428357373555E7373730C
:104C3000737373730800D0F88832DB690DF10601D5
:104C4000207C9847BDF8062052B1EB8843B19A42C8
:104C50000146204628BF1A46ADF8062000F0C1F9EB
:104C6000EB88002BD5D1204600F0E7F9D1E7D0F84A
:104C700088321B68E2E7027CD0F88C3232B99B6A3A
:104C80000DF10600984702234370DBE7DB6AF7E784
:104C9000DBB2052B3AD8DFE803F003070B0F13173D
:104CA000D0F888325B68C9E7D0F888329B68C5E7DE
:104CB000D0F88832DB68C1E7D0F888321B69BDE7DD
:104CC000D0F888325B69B9E7D0F888329B69B5E7DC
:104CD000037CDBB9D0F88C320DF106005B6B984792
:104CE000B0E7037C93B9D0F88C320DF106001B6B52
:104CF00098470723C8E78B8843B9CB8833B94D88D9
:104D00007F2D03D890F87432032B03D12046FFF790
:104D100051FF7EE7E9B280F8761204F057F820469A
:104D200000F08BF91DB1022384F8743271E701237E
:104D3000FAE78978354D01292970E7D890F874325F
:104D4000022B08D0032B14D0FFF734FF297820461C
:104D5000FFF713FE5DE7002985D0012103234160A1
:104D600080F874322046FFF7FDFD02287FF47BAF08
:104D7000CCE731B90223416080F87432FFF7FDFDC2
:104D800071E7416801293FF46EAFC9B2FFF7F5FD45
:104D900029786160E6E7CA88012AB7D190F87432B1
:104DA000002BB3D0022B03D9032BAFD1011D03E09D
:104DB0000146002341F8083F204600F012F928E799
:104DC00090F87432013B022BA0D8CB88022B9DD1E6
:104DD0000123C360D0F87C320BB10323C3600222ED
:104DE00004F10C01E8E74B88012B7FF412AFC4F803
:104DF0007C3238E790F87432013B022B86D84B881E
:104E0000012B7FF406AF0023F1E700BF0C02002066
:104E100038B50B7804460D4603F06003202B02D012
:104E2000402B00D0ABB994F87432013B022B10D860
:104E30002B79012B0DD8D4F88C32294620469B685B
:104E40009847EB881BB910B9204600F0F6F800200F
:104E500038BD2046FFF7AEFEF9E738B50A780446BC
:104E60000B4602F06002202A14D0402A12D06AB900
:104E70005A788D88012AE9B220D036D3032A05D189
:104E800090F87422022A27D0032A0BD02046FFF77D
:104E900091FE05E0D4F88C2219462046926890478E
:104EA000002038BD5A882AB94A0603D0DB880BB9DE
:104EB00003F05CFF204600F0C0F8F1E790F87422A0
:104EC000022A09D0032AE1D15B88002BE8D14D06E4
:104ED000F0D003F059FFEDE74B06D7D003F046FFC3
:104EE0008021204603F042FFDAE790F87432022B6B
:104EF00018D0032BCAD101F00F02142315F0800F34
:104F000003FB02021FD09269002ABFD001F07F0587
:104F100005FB0335054411F07F031FD12B600222EE
:104F200029460CE04A06B1D12B064FF002024FF0A1
:104F300000034CBF00F1140100F5A0710B60204686
:104F400000F04FF8ACE7D2F84421002A9ED001F0DF
:104F50007F0503FB050505F5A075DCE7204603F09A
:104F600021FF08B10123D9E72860D8E70B78037047
:104F70004B784370CA788B7803EB022343804A79DD
:104F80000B7903EB02238380CA798B7903EB02232D
:104F9000C380704710B50446802103F0E7FE00216E
:104FA0002046BDE8104003F0E1BE30B588B10546AB
:104FB0002B1A15F8014BDBB2002CF9D10133013863
:104FC0005B0013800B7003234B70022310F8015F0A
:104FD00005B930BD5A1CCD540233D2B2DBB28C5469
:104FE000F4E71346022210B5C0F86C220A460021ED
:104FF000C0E9073303F0F8FE002010BD08B51346E2
:105000000A46002103F0F0FE002008BD13460322EB
:1050100010B5C0F86C220A46C0F848310021C0F82B
:105020004C3103F0EFFE002010BD08B513460A46D0
:10503000002103F0E7FE002008BD08B50423C0F8F6
:105040006C3200231A46194603F0CEFE002008BD3C
:1050500008B50523C0F86C3200231A46194603F040
:10506000D1FE002008BD0000034B1A1803EB80039B
:105070005B68107B5B6818473C020020064B1A5C9B
:1050800042B901221A541A1803EB8003107B5B68A3
:105090001B681847002070473C02002030B4054CC4
:1050A000251804EB800460688468287BA44630BC23
:1050B000604700BF3C02002030B4054C251804EBCB
:1050C00080046068C468287BA44630BC604700BF89
:1050D0003C020020054B10B41C1803EB80035B68F6
:1050E000207B1B695DF8044B184700BF3C02002081
:1050F00042884378007843EA022340EA032070475D
:105100000B0A017043700B0C090E8370C17070475D
:10511000024400F8011B9042FBD170471B4A136800
:1051200030B563B104689C4207D1546883689C42DF
:1051300003D1946843699C4220D0002400E00124FC
:105140001369CBB10568AB4207D1556983689D42AD
:1051500003D1956943699D4215D06CB902290CBFF2
:105160000020122030BD02EB03129389B3F5807F3B
:1051700014BF00201020F5E70020F3E700230029EA
:10518000F1D01020EEE70123F9E700BF180200205C
:105190001E4AF0B5136805689D4207D156688468B9
:1051A000A64203D146699468A64221D01469AC4254
:1051B00007D157698668B74203D197694669B742F4
:1051C00020D00BB104BB01231E01941995518568B1
:1051D00040696560A0600020A08181B902EB0311E5
:1051E0008989013189B202EB0312581C9181F0BD0B
:1051F00000230029F2D002EB0311898921B94FF471
:105200008071F0E70123F4E70020F0E718020020A6
:105210000138012814D80B49020188188389B3F595
:10522000807F04D100238381002088507047002BA9
:10523000FAD0013B9BB28381002BF5D00020704750
:10524000022070471802002083690239023B8B421A
:1052500083BF4389C06A01FB0300002070470268D6
:10526000490AC36A52890433B1FBF2F1186830B1BC
:10527000814202D3091A0833F8E758680844704796
:10528000024600F10B010020C30143EA500312F86B
:10529000010B50FA83F38A42D8B2F5D17047036804
:1052A00010B5044653B119460A4611F8010B1F28E0
:1052B00010D93A28F8D1591C8A4202D04FF0FF3059
:1052C00007E01B78303BD9B20129F7D801321846E4
:1052D000226010BD0020FCE738B50D46044618B921
:1052E000002309202B6038BD0368002BF8D01A7802
:1052F000002AF5D0D98882889142F1D15878FFF7F9
:10530000B3FE10F00100EBD123682B60EBE701380E
:105310000A4411F8013B914200F8013FF9D170476E
:105320000328CA7E8B7E08BF487D43EA022302BF62
:105330000A7D42EA002243EA024318467047C2F35C
:1053400007238A76CB760378032B01BF120C0A75EC
:10535000120A4A757047F8B5056B00F13407044628
:1053600001232A4639464078FFF7A6FEA0B9636AB2
:10537000E269EB1AE070934201D30020F8BDA678F1
:10538000012EFAD9E36939466078013E1D440123B4
:105390002A46FFF791FEF3E70120EFE7C3780BB150
:1053A000FFF7D9BF18467047036B8B4270B50646AE
:1053B0000D4612D0FFF7F2FF044660B92A460123DA
:1053C00006F134017078FFF769FE00281CBF4FF02A
:1053D000FF3501243563204670BD0024FBE7000043
:1053E000002310B5C3704FF0FF3304460363FFF78B
:1053F000DBFF30BB94F8332294F8323243EA0223C5
:105400004AF6552293421ED194F83430E92B05D048
:10541000636B104A03F0FF13934216D104F16A0044
:10542000FFF766FE0C4B20F07F4098420FD004F14E
:105430008600FFF75DFE094B984214BF0220002052
:1054400010BD0420FCE70320FAE70220F8E7002063
:10545000F6E700BFEB00900046415400464154334C
:1054600000232DE9F0430B6085B00F461546FFF78A
:1054700016FF061EC0F23981A04B53F82640002CBF
:1054800000F035813C6005F0FE05237873B160784B
:10549000FFF7EAFDC10709D4002D00F02A8110F0C2
:1054A000040000D00A2005B0BDE8F0830023F0B26C
:1054B00023706070FFF7E2FDC20700F11C810DB19F
:1054C0004307EFD400212046FFF78AFF022840F06F
:1054D000F38004F5FD75002115F8040C10B1284681
:1054E000FFF706FE4DF82100013110350429F3D1F4
:1054F00000265DF82650002D00F0D5802946204674
:10550000FFF76EFF012800F2CF8094F8402094F856
:105510003F3043EA0223B3F5007F40F0D18094F896
:105520004B3094F84A6056EA032604D104F158003F
:10553000FFF7DEFD064694F84490E66109F1FF337B
:1055400084F80290012B00F2BB8094F84170BBB24A
:105550006381002B00F0B4807B1E3B4240F0B080A2
:1055600094F8463094F8458048EA032818F00F0F65
:10557000A4F8088040F0A48094F8481094F84700FC
:1055800050EA012003D104F15400FFF7B1FD94F873
:10559000432094F8423053EA022300F0918006FB46
:1055A00009FC03EB181262449042C0F08980811A12
:1055B000B1FBF7F1002900F083804FF6F57740F654
:1055C000F5702B442A44B9428CBF03270227256279
:1055D0006362814298BF01270231E262032FA16119
:1055E00072D194F85F2094F85E3053EA022367D1B9
:1055F000B8F1000F64D104F16000FFF779FDA062FB
:10560000890001F2FF11B6EB512F59D34FF0FF3350
:10561000032FC4E904334FF0800323712FD194F892
:10562000652094F8643043EA0223012B27D1691CDA
:105630002046FFF7B9FE10BB94F8332294F83232BB
:10564000207143EA02234AF65522934217D104F10E
:105650003400FFF74DFD2A4B984210D104F5067037
:10566000FFF746FD274B984209D104F50770FFF775
:105670003FFD606104F50870FFF73AFD2061224AA2
:1056800000202770138801339BB21380E3801F4BE7
:105690001A68944204BF00221A601A6994427FF487
:1056A00002AF1861FFE603200136042E7FF421AF1C
:1056B000042805D10120F6E60428FBD0012801D9F1
:1056C0000D20F0E6002520E7B8F1000FF8D0022FFA
:1056D0004FEA410063441CBF401801F00101A3627E
:1056E0000CBF014601EB50018BE70B20DBE60C20E1
:1056F000D9E62846D7E60320D5E600BF10020020F1
:105700005252614172724161380200201802002039
:1057100001292DE9F04705460C46174673D98369E0
:105720008B4270D90378022B40D0032B51D0012B30
:1057300069D101EB5108416A01EB5821FFF734FEB2
:10574000064640BB14F0010405F1340908F1010AD2
:10575000C8F3080808BFFBB228461FBF19F8083075
:1057600003F00F023B0103F0F00318BF134309F8E5
:1057700008300123696AEB7001EB5A21FFF714FE30
:10578000064640B9CAF3080A44B1C7F3071709F837
:105790000A700123EB703046BDE8F08719F80A3033
:1057A000C7F3032723F00F031F43F0E7416A01EB20
:1057B0001421FFF7F9FD06460028ECD1640005F13D
:1057C000340304F4FF741F551A19C7F307275770E1
:1057D000DFE7416A01EBD411FFF7E6FD064600283A
:1057E000D9D1A40005F1340327F0704704F4FE7406
:1057F0001C442046FFF77CFC00F0704120463943F2
:10580000FFF77EFCC5E70226C5E70129F8B5054686
:105810000C4652D9836999424FD20378022B29D082
:10582000032B38D0012B48D101EB5106416A01EB23
:105830005621FFF7B9FD10B14FF0FF30F8BD771CCE
:10584000C6F30806696A28462E4401EB572196F8EC
:105850003460FFF7A9FD0028EED1C7F30807E3077E
:105860003D4495F8340046EA00204CBF0009C0F3DF
:105870000B00E3E7416A01EB1421FFF795FD0028D7
:10588000DAD16400343504F4FF742B19285D5B7899
:1058900040EA0320D2E7416A01EBD411FFF784FD0F
:1058A0000028C9D1A40005F1340004F4FE7420449A
:1058B000FFF71EFC20F07040C0E70120BEE7B1F505
:1058C000001FF8B506460D4601D30220F8BDCA06F2
:1058D000FBD1826804687161C2B92378022B01D9B7
:1058E000A36AA3B92389B3EB551FEED9A36AF36169
:1058F000F369B261002BE8D003EB55233434C5F3D0
:1059000008050020F3612C443462DFE71346678901
:105910001A467F02BD42114604D22046FFF794FC8E
:10592000F061E5E73068FFF770FF431C024606D0E0
:105930000128CAD9A3698342C7D9ED1BEAE7012030
:10594000C4E72DE9F041804605680F4671B92E691C
:10595000F6B1AB69B34298BF012634460134AB6956
:10596000A34218D8012E15D8002409E02846FFF7D5
:105970004CFF0128044637D9431C04D14FF0FF34B3
:105980002046BDE8F081AB698342F9D83E46E4E7A2
:105990000126E2E702242146D8F80000FFF735FF90
:1059A00030B1012820D00130E8D0B442D6D1DBE7B5
:1059B0004FF0FF3221462846FFF7AAFE90B957B9AB
:1059C0002C61D5E90532023A93420FD92B7943F085
:1059D00001032B71D4E7224639462846FFF798FE8B
:1059E0000028EDD00128C9D00124C9E7013B6B6133
:1059F000ECE7F8B50D4607461146012D2CD9046891
:105A0000A369AB4228D92AB14FF0FF322046FFF7F5
:105A10007FFE30B929463868FFF7F7FE064608B919
:105A20000020F8BD012817D0431C17D000222946BA
:105A30002046FFF76DFE0028F3D1D4E90532911E10
:105A40008B4205D201336361237943F00103237153
:105A5000B2423546DED8E3E70220E2E70120E0E784
:105A6000F8B50446FFF79AFC0546002842D1237892
:105A7000032B37D12779012F34D104F134060146A5
:105A80004FF400723046FFF743FB55234122722149
:105A900084F83232AA2384F8372004F5077084F89A
:105AA0003332522384F81A2284F8343084F83530A3
:105AB000612384F8181284F8363084F81B3284F895
:105AC00019126169FFF71CFB216904F50870FFF7E3
:105AD00017FB226A3B463146013260782263FFF7AA
